{
  "_format": "hh-sol-artifact-1",
  "contractName": "VehicleRental",
  "sourceName": "contracts/VehicleRental.sol",
  "abi": [
    {
      "anonymous": false,
      "inputs": [
        {
          "indexed": true,
          "internalType": "uint256",
          "name": "carId",
          "type": "uint256"
        },
        {
          "indexed": false,
          "internalType": "string",
          "name": "model",
          "type": "string"
        }
      ],
      "name": "CarAdded",
      "type": "event"
    },
    {
      "anonymous": false,
      "inputs": [
        {
          "indexed": true,
          "internalType": "uint256",
          "name": "carId",
          "type": "uint256"
        },
        {
          "indexed": true,
          "internalType": "address",
          "name": "renter",
          "type": "address"
        },
        {
          "indexed": false,
          "internalType": "uint256",
          "name": "duration",
          "type": "uint256"
        }
      ],
      "name": "CarRented",
      "type": "event"
    },
    {
      "anonymous": false,
      "inputs": [
        {
          "indexed": true,
          "internalType": "uint256",
          "name": "carId",
          "type": "uint256"
        },
        {
          "indexed": true,
          "internalType": "address",
          "name": "renter",
          "type": "address"
        }
      ],
      "name": "CarReturned",
      "type": "event"
    },
    {
      "inputs": [
        {
          "internalType": "string",
          "name": "_model",
          "type": "string"
        },
        {
          "internalType": "string",
          "name": "_licensePlate",
          "type": "string"
        },
        {
          "internalType": "uint256",
          "name": "_pricePerDay",
          "type": "uint256"
        },
        {
          "internalType": "uint256",
          "name": "_duration",
          "type": "uint256"
        }
      ],
      "name": "addCar",
      "outputs": [],
      "stateMutability": "nonpayable",
      "type": "function"
    },
    {
      "inputs": [
        {
          "internalType": "uint256",
          "name": "",
          "type": "uint256"
        }
      ],
      "name": "cars",
      "outputs": [
        {
          "internalType": "uint256",
          "name": "id",
          "type": "uint256"
        },
        {
          "internalType": "string",
          "name": "model",
          "type": "string"
        },
        {
          "internalType": "string",
          "name": "licensePlate",
          "type": "string"
        },
        {
          "internalType": "uint256",
          "name": "pricePerDay",
          "type": "uint256"
        },
        {
          "internalType": "uint256",
          "name": "duration",
          "type": "uint256"
        },
        {
          "internalType": "bool",
          "name": "isAvailable",
          "type": "bool"
        },
        {
          "internalType": "address",
          "name": "renter",
          "type": "address"
        }
      ],
      "stateMutability": "view",
      "type": "function"
    },
    {
      "inputs": [],
      "name": "getAllCars",
      "outputs": [
        {
          "internalType": "uint256[]",
          "name": "ids",
          "type": "uint256[]"
        },
        {
          "internalType": "string[]",
          "name": "models",
          "type": "string[]"
        },
        {
          "internalType": "string[]",
          "name": "plates",
          "type": "string[]"
        },
        {
          "internalType": "uint256[]",
          "name": "prices",
          "type": "uint256[]"
        },
        {
          "internalType": "uint256[]",
          "name": "durations",
          "type": "uint256[]"
        },
        {
          "internalType": "bool[]",
          "name": "availables",
          "type": "bool[]"
        },
        {
          "internalType": "address[]",
          "name": "renters",
          "type": "address[]"
        }
      ],
      "stateMutability": "view",
      "type": "function"
    },
    {
      "inputs": [
        {
          "internalType": "address",
          "name": "_renter",
          "type": "address"
        }
      ],
      "name": "getRentalHistory",
      "outputs": [
        {
          "internalType": "uint256[]",
          "name": "carIds",
          "type": "uint256[]"
        },
        {
          "internalType": "uint256[]",
          "name": "durations",
          "type": "uint256[]"
        },
        {
          "internalType": "uint256[]",
          "name": "timestamps",
          "type": "uint256[]"
        }
      ],
      "stateMutability": "view",
      "type": "function"
    },
    {
      "inputs": [
        {
          "internalType": "uint256",
          "name": "_id",
          "type": "uint256"
        },
        {
          "internalType": "uint256",
          "name": "_duration",
          "type": "uint256"
        }
      ],
      "name": "rentCar",
      "outputs": [],
      "stateMutability": "payable",
      "type": "function"
    },
    {
      "inputs": [
        {
          "internalType": "address",
          "name": "",
          "type": "address"
        },
        {
          "internalType": "uint256",
          "name": "",
          "type": "uint256"
        }
      ],
      "name": "rentalRecords",
      "outputs": [
        {
          "internalType": "uint256",
          "name": "carId",
          "type": "uint256"
        },
        {
          "internalType": "uint256",
          "name": "duration",
          "type": "uint256"
        },
        {
          "internalType": "uint256",
          "name": "timestamp",
          "type": "uint256"
        }
      ],
      "stateMutability": "view",
      "type": "function"
    },
    {
      "inputs": [
        {
          "internalType": "uint256",
          "name": "_id",
          "type": "uint256"
        }
      ],
      "name": "returnCar",
      "outputs": [],
      "stateMutability": "nonpayable",
      "type": "function"
    }
  ],
  "bytecode": "0x6080604052348015600f57600080fd5b50611f918061001f6000396000f3fe6080604052600436106100705760003560e01c806396744a6a1161004e57806396744a6a146101065780639ca0fc0d14610145578063abfe5d5714610161578063f7746e361461019257610070565b806317f956e0146100755780633f1ff2df1461009e5780634865bed2146100dd575b600080fd5b34801561008157600080fd5b5061009c60048036038101906100979190611135565b6101d5565b005b3480156100aa57600080fd5b506100c560048036038101906100c091906111c0565b610386565b6040516100d49392919061120f565b60405180910390f35b3480156100e957600080fd5b5061010460048036038101906100ff919061138c565b6103cd565b005b34801561011257600080fd5b5061012d6004803603810190610128919061142b565b610540565b60405161013c93929190611516565b60405180910390f35b61015f600480360381019061015a9190611562565b610787565b005b34801561016d57600080fd5b506101766109fc565b604051610189979695949392919061186b565b60405180910390f35b34801561019e57600080fd5b506101b960048036038101906101b49190611135565b610f5c565b6040516101cc9796959493929190611973565b60405180910390f35b600080549050811061021c576040517f08c379a000000000000000000000000000000000000000000000000000000000815260040161021390611a3c565b60405180910390fd5b600080828154811061023157610230611a5c565b5b906000526020600020906006020190503373ffffffffffffffffffffffffffffffffffffffff168160050160019054906101000a900473ffffffffffffffffffffffffffffffffffffffff1673ffffffffffffffffffffffffffffffffffffffff16146102d3576040517f08c379a00000000000000000000000000000000000000000000000000000000081526004016102ca90611ad7565b60405180910390fd5b6000816004018190555060018160050160006101000a81548160ff02191690831515021790555060008160050160016101000a81548173ffffffffffffffffffffffffffffffffffffffff021916908373ffffffffffffffffffffffffffffffffffffffff1602179055503373ffffffffffffffffffffffffffffffffffffffff16827fc0de8d61eb21cbee172fbd668a1694aaadbe1e0cd72b19a7471fdae993be2e7860405160405180910390a35050565b600160205281600052604060002081815481106103a257600080fd5b9060005260206000209060030201600091509150508060000154908060010154908060020154905083565b60008080549050905060006040518060e00160405280838152602001878152602001868152602001858152602001848152602001600115158152602001600073ffffffffffffffffffffffffffffffffffffffff16815250908060018154018082558091505060019003906000526020600020906006020160009091909190915060008201518160000155602082015181600101908161046d9190611d03565b5060408201518160020190816104839190611d03565b50606082015181600301556080820151816004015560a08201518160050160006101000a81548160ff02191690831515021790555060c08201518160050160016101000a81548173ffffffffffffffffffffffffffffffffffffffff021916908373ffffffffffffffffffffffffffffffffffffffff1602179055505050807f55750e65431cb3ebf1571c47da52699b56975a35fe85c9bc8ad7fbdeb313f931866040516105319190611dd5565b60405180910390a25050505050565b60608060606000600160008673ffffffffffffffffffffffffffffffffffffffff1673ffffffffffffffffffffffffffffffffffffffff1681526020019081526020016000208054905090508067ffffffffffffffff8111156105a6576105a5611261565b5b6040519080825280602002602001820160405280156105d45781602001602082028036833780820191505090505b5093508067ffffffffffffffff8111156105f1576105f0611261565b5b60405190808252806020026020018201604052801561061f5781602001602082028036833780820191505090505b5092508067ffffffffffffffff81111561063c5761063b611261565b5b60405190808252806020026020018201604052801561066a5781602001602082028036833780820191505090505b50915060005b8181101561077e576000600160008873ffffffffffffffffffffffffffffffffffffffff1673ffffffffffffffffffffffffffffffffffffffff16815260200190815260200160002082815481106106cb576106ca611a5c565b5b906000526020600020906003020160405180606001604052908160008201548152602001600182015481526020016002820154815250509050806000015186838151811061071c5761071b611a5c565b5b60200260200101818152505080602001518583815181106107405761073f611a5c565b5b602002602001018181525050806040015184838151811061076457610763611a5c565b5b602002602001018181525050508080600101915050610670565b50509193909250565b60008054905082106107ce576040517f08c379a00000000000000000000000000000000000000000000000000000000081526004016107c590611a3c565b60405180910390fd5b60008083815481106107e3576107e2611a5c565b5b906000526020600020906006020190508060050160009054906101000a900460ff16610844576040517f08c379a000000000000000000000000000000000000000000000000000000000815260040161083b90611e43565b60405180910390fd5b60008282600301546108569190611e92565b90508034101561089b576040517f08c379a000000000000000000000000000000000000000000000000000000000815260040161089290611f20565b60405180910390fd5b82826004018190555060008260050160006101000a81548160ff021916908315150217905550338260050160016101000a81548173ffffffffffffffffffffffffffffffffffffffff021916908373ffffffffffffffffffffffffffffffffffffffff160217905550600160003373ffffffffffffffffffffffffffffffffffffffff1673ffffffffffffffffffffffffffffffffffffffff168152602001908152602001600020604051806060016040528086815260200185815260200142815250908060018154018082558091505060019003906000526020600020906003020160009091909190915060008201518160000155602082015181600101556040820151816002015550503373ffffffffffffffffffffffffffffffffffffffff16847fe880d822f4bdb63368fee99cd4a95706e7c7fdf51c0d2edd68bb8f4d0ea0fe72856040516109ee9190611f40565b60405180910390a350505050565b60608060608060608060606000808054905090508067ffffffffffffffff811115610a2a57610a29611261565b5b604051908082528060200260200182016040528015610a585781602001602082028036833780820191505090505b5097508067ffffffffffffffff811115610a7557610a74611261565b5b604051908082528060200260200182016040528015610aa857816020015b6060815260200190600190039081610a935790505b5096508067ffffffffffffffff811115610ac557610ac4611261565b5b604051908082528060200260200182016040528015610af857816020015b6060815260200190600190039081610ae35790505b5095508067ffffffffffffffff811115610b1557610b14611261565b5b604051908082528060200260200182016040528015610b435781602001602082028036833780820191505090505b5094508067ffffffffffffffff811115610b6057610b5f611261565b5b604051908082528060200260200182016040528015610b8e5781602001602082028036833780820191505090505b5093508067ffffffffffffffff811115610bab57610baa611261565b5b604051908082528060200260200182016040528015610bd95781602001602082028036833780820191505090505b5092508067ffffffffffffffff811115610bf657610bf5611261565b5b604051908082528060200260200182016040528015610c245781602001602082028036833780820191505090505b50915060005b81811015610f51576000808281548110610c4757610c46611a5c565b5b90600052602060002090600602016040518060e001604052908160008201548152602001600182018054610c7a90611b26565b80601f0160208091040260200160405190810160405280929190818152602001828054610ca690611b26565b8015610cf35780601f10610cc857610100808354040283529160200191610cf3565b820191906000526020600020905b815481529060010190602001808311610cd657829003601f168201915b50505050508152602001600282018054610d0c90611b26565b80601f0160208091040260200160405190810160405280929190818152602001828054610d3890611b26565b8015610d855780601f10610d5a57610100808354040283529160200191610d85565b820191906000526020600020905b815481529060010190602001808311610d6857829003601f168201915b5050505050815260200160038201548152602001600482015481526020016005820160009054906101000a900460ff161515151581526020016005820160019054906101000a900473ffffffffffffffffffffffffffffffffffffffff1673ffffffffffffffffffffffffffffffffffffffff1673ffffffffffffffffffffffffffffffffffffffff1681525050905080600001518a8381518110610e2d57610e2c611a5c565b5b6020026020010181815250508060200151898381518110610e5157610e50611a5c565b5b60200260200101819052508060400151888381518110610e7457610e73611a5c565b5b60200260200101819052508060600151878381518110610e9757610e96611a5c565b5b6020026020010181815250508060800151868381518110610ebb57610eba611a5c565b5b6020026020010181815250508060a00151858381518110610edf57610ede611a5c565b5b6020026020010190151590811515815250508060c00151848381518110610f0957610f08611a5c565b5b602002602001019073ffffffffffffffffffffffffffffffffffffffff16908173ffffffffffffffffffffffffffffffffffffffff1681525050508080600101915050610c2a565b505090919293949596565b60008181548110610f6c57600080fd5b9060005260206000209060060201600091509050806000015490806001018054610f9590611b26565b80601f0160208091040260200160405190810160405280929190818152602001828054610fc190611b26565b801561100e5780601f10610fe35761010080835404028352916020019161100e565b820191906000526020600020905b815481529060010190602001808311610ff157829003601f168201915b50505050509080600201805461102390611b26565b80601f016020809104026020016040519081016040528092919081815260200182805461104f90611b26565b801561109c5780601f106110715761010080835404028352916020019161109c565b820191906000526020600020905b81548152906001019060200180831161107f57829003601f168201915b5050505050908060030154908060040154908060050160009054906101000a900460ff16908060050160019054906101000a900473ffffffffffffffffffffffffffffffffffffffff16905087565b6000604051905090565b600080fd5b600080fd5b6000819050919050565b611112816110ff565b811461111d57600080fd5b50565b60008135905061112f81611109565b92915050565b60006020828403121561114b5761114a6110f5565b5b600061115984828501611120565b91505092915050565b600073ffffffffffffffffffffffffffffffffffffffff82169050919050565b600061118d82611162565b9050919050565b61119d81611182565b81146111a857600080fd5b50565b6000813590506111ba81611194565b92915050565b600080604083850312156111d7576111d66110f5565b5b60006111e5858286016111ab565b92505060206111f685828601611120565b9150509250929050565b611209816110ff565b82525050565b60006060820190506112246000830186611200565b6112316020830185611200565b61123e6040830184611200565b949350505050565b600080fd5b600080fd5b6000601f19601f8301169050919050565b7f4e487b7100000000000000000000000000000000000000000000000000000000600052604160045260246000fd5b61129982611250565b810181811067ffffffffffffffff821117156112b8576112b7611261565b5b80604052505050565b60006112cb6110eb565b90506112d78282611290565b919050565b600067ffffffffffffffff8211156112f7576112f6611261565b5b61130082611250565b9050602081019050919050565b82818337600083830152505050565b600061132f61132a846112dc565b6112c1565b90508281526020810184848401111561134b5761134a61124b565b5b61135684828561130d565b509392505050565b600082601f83011261137357611372611246565b5b813561138384826020860161131c565b91505092915050565b600080600080608085870312156113a6576113a56110f5565b5b600085013567ffffffffffffffff8111156113c4576113c36110fa565b5b6113d08782880161135e565b945050602085013567ffffffffffffffff8111156113f1576113f06110fa565b5b6113fd8782880161135e565b935050604061140e87828801611120565b925050606061141f87828801611120565b91505092959194509250565b600060208284031215611441576114406110f5565b5b600061144f848285016111ab565b91505092915050565b600081519050919050565b600082825260208201905092915050565b6000819050602082019050919050565b61148d816110ff565b82525050565b600061149f8383611484565b60208301905092915050565b6000602082019050919050565b60006114c382611458565b6114cd8185611463565b93506114d883611474565b8060005b838110156115095781516114f08882611493565b97506114fb836114ab565b9250506001810190506114dc565b5085935050505092915050565b6000606082019050818103600083015261153081866114b8565b9050818103602083015261154481856114b8565b9050818103604083015261155881846114b8565b9050949350505050565b60008060408385031215611579576115786110f5565b5b600061158785828601611120565b925050602061159885828601611120565b9150509250929050565b600081519050919050565b600082825260208201905092915050565b6000819050602082019050919050565b600081519050919050565b600082825260208201905092915050565b60005b838110156116085780820151818401526020810190506115ed565b60008484015250505050565b600061161f826115ce565b61162981856115d9565b93506116398185602086016115ea565b61164281611250565b840191505092915050565b60006116598383611614565b905092915050565b6000602082019050919050565b6000611679826115a2565b61168381856115ad565b935083602082028501611695856115be565b8060005b858110156116d157848403895281516116b2858261164d565b94506116bd83611661565b925060208a01995050600181019050611699565b50829750879550505050505092915050565b600081519050919050565b600082825260208201905092915050565b6000819050602082019050919050565b60008115159050919050565b6117248161170f565b82525050565b6000611736838361171b565b60208301905092915050565b6000602082019050919050565b600061175a826116e3565b61176481856116ee565b935061176f836116ff565b8060005b838110156117a0578151611787888261172a565b975061179283611742565b925050600181019050611773565b5085935050505092915050565b600081519050919050565b600082825260208201905092915050565b6000819050602082019050919050565b6117e281611182565b82525050565b60006117f483836117d9565b60208301905092915050565b6000602082019050919050565b6000611818826117ad565b61182281856117b8565b935061182d836117c9565b8060005b8381101561185e57815161184588826117e8565b975061185083611800565b925050600181019050611831565b5085935050505092915050565b600060e0820190508181036000830152611885818a6114b8565b90508181036020830152611899818961166e565b905081810360408301526118ad818861166e565b905081810360608301526118c181876114b8565b905081810360808301526118d581866114b8565b905081810360a08301526118e9818561174f565b905081810360c08301526118fd818461180d565b905098975050505050505050565b600082825260208201905092915050565b6000611927826115ce565b611931818561190b565b93506119418185602086016115ea565b61194a81611250565b840191505092915050565b61195e8161170f565b82525050565b61196d81611182565b82525050565b600060e082019050611988600083018a611200565b818103602083015261199a818961191c565b905081810360408301526119ae818861191c565b90506119bd6060830187611200565b6119ca6080830186611200565b6119d760a0830185611955565b6119e460c0830184611964565b98975050505050505050565b7f494420696e76616c69646f000000000000000000000000000000000000000000600082015250565b6000611a26600b8361190b565b9150611a31826119f0565b602082019050919050565b60006020820190508181036000830152611a5581611a19565b9050919050565b7f4e487b7100000000000000000000000000000000000000000000000000000000600052603260045260246000fd5b7f566f6365206e616f20616c75676f75206573746520636172726f000000000000600082015250565b6000611ac1601a8361190b565b9150611acc82611a8b565b602082019050919050565b60006020820190508181036000830152611af081611ab4565b9050919050565b7f4e487b7100000000000000000000000000000000000000000000000000000000600052602260045260246000fd5b60006002820490506001821680611b3e57607f821691505b602082108103611b5157611b50611af7565b5b50919050565b60008190508160005260206000209050919050565b60006020601f8301049050919050565b600082821b905092915050565b600060088302611bb97fffffffffffffffffffffffffffffffffffffffffffffffffffffffffffffffff82611b7c565b611bc38683611b7c565b95508019841693508086168417925050509392505050565b6000819050919050565b6000611c00611bfb611bf6846110ff565b611bdb565b6110ff565b9050919050565b6000819050919050565b611c1a83611be5565b611c2e611c2682611c07565b848454611b89565b825550505050565b600090565b611c43611c36565b611c4e818484611c11565b505050565b5b81811015611c7257611c67600082611c3b565b600181019050611c54565b5050565b601f821115611cb757611c8881611b57565b611c9184611b6c565b81016020851015611ca0578190505b611cb4611cac85611b6c565b830182611c53565b50505b505050565b600082821c905092915050565b6000611cda60001984600802611cbc565b1980831691505092915050565b6000611cf38383611cc9565b9150826002028217905092915050565b611d0c826115ce565b67ffffffffffffffff811115611d2557611d24611261565b5b611d2f8254611b26565b611d3a828285611c76565b600060209050601f831160018114611d6d5760008415611d5b578287015190505b611d658582611ce7565b865550611dcd565b601f198416611d7b86611b57565b60005b82811015611da357848901518255600182019150602085019450602081019050611d7e565b86831015611dc05784890151611dbc601f891682611cc9565b8355505b6001600288020188555050505b505050505050565b60006020820190508181036000830152611def818461191c565b905092915050565b7f436172726f206e616f20646973706f6e6976656c000000000000000000000000600082015250565b6000611e2d60148361190b565b9150611e3882611df7565b602082019050919050565b60006020820190508181036000830152611e5c81611e20565b9050919050565b7f4e487b7100000000000000000000000000000000000000000000000000000000600052601160045260246000fd5b6000611e9d826110ff565b9150611ea8836110ff565b9250828202611eb6816110ff565b91508282048414831517611ecd57611ecc611e63565b5b5092915050565b7f56616c6f7220696e737566696369656e74650000000000000000000000000000600082015250565b6000611f0a60128361190b565b9150611f1582611ed4565b602082019050919050565b60006020820190508181036000830152611f3981611efd565b9050919050565b6000602082019050611f556000830184611200565b9291505056fea26469706673582212204bb8e855ebee03b20fecaf9ccc6f6942be22f2c3507d5c1a2c823bd9a0611ee964736f6c634300081c0033",
  "linkReferences": {},
  "deployedLinkReferences": {}
}